:0A0000000C947A000C9400000C949C
:10000A0000000C9400000C9400000C9400000C9466
:10001A0000000C9400000C9400000C9400000C9456
:10002A0000000C9400000C9400000C9400000C9446
:10003A0000000C9400000C9400000C9400000C9436
:10004A0000000C9400000C9400000C9400000C9426
:10005A0000000C9400000C9400000C9400000C9416
:10006A0000000C9400000C9400000C9400000C9406
:10007A0000000C9400000C9400000C9400000C94F6
:10008A0000000C9400000C9400000C9400000C94E6
:10009A0000000C9400000C9400000C9400000C94D6
:1000AA0000000C9400000C9400000C9400000C94C6
:1000BA0000000C94D2000C9400000C9400000C94E4
:1000CA00000032007C0015001027E80364000A00D3
:1000DA000100001000011000010000000200040AE3
:1000EA00CC000200060AE4000000F894EE27EFBBF9
:1000FA00F1E0F5BFE5BFE0937400E0937500F8E125
:10010A00A895A4B7A77FA4BFF0936000E09360000E
:10011A008DE0A2E0BB27ED938A95E9F780E090E2B3
:10012A00A0E0B2E0ED930197E9F78BBFE6EEF0E0CD
:10013A0085919591009761F0A591B59105901590DB
:10014A00BF01F00105900D920197E1F7FB01F0CF95
:10015A00E0E0EEBBEFEFEDBFE1E2EEBFC0E0DAE0D8
:10016A000C9414021A930A93E091C8001E2FE078A7
:10017A00D9F30091CE00E12FEC7111F4E02F01C008
:10018A00F3CF099119910895E091C800E072E1F363
:10019A00E881E093CE0021960895AA93BA93EA9350
:1001AA00FA93EFB7EA93789450908400662470909B
:1001BA00940088240E94FC03E7E7E315C1F4A72D05
:1001CA00B82DA519B60911972CF0E1E0F0E0BE0EA2
:1001DA00CF1E0AC0A52DB62DA719B809119724F06C
:1001EA00E1E0F0E0BE1ACF0AEB2DFC2DE7BDE99164
:1001FA00EFBFF991E991B991A99118951A930A93C8
:10020A00EA81FB81FA93EA931A930A930E94C6033E
:10021A009924AA241A930A930E94F203E915FA056B
:10022A0078F0E92DFA2DE00FF11FE081EA930E94A0
:10023A00C900E92DFA2D31969E2EAF2E3197EACFBD
:10024A0019810881249608952A9784E0A0E0B0E0F5
:10025A00EEECF0E00E947E040E9470040E94020408
:10026A00EB2DFC2DE7BDED2DFE2DE093B300E6E668
:10027A003E2E0E940704A889A23751F401E010E03B
:10028A0020E030E040E050E0E0E0EE87EF870AC08F
:10029A0000E010E020E030E040E050E0E1E0F0E093
:1002AA00EE87FF870E940D040E941404AE17BF0751
:1002BA002CF00E941904AE17BF07CCF5A889A23703
:1002CA0039F40E941E04EC87FD87E091850006C080
:1002DA000E942204EC87FD87E0919500F0E0EA870E
:1002EA00FB87F801E03011F4409801C0409AF90107
:1002FA00E03011F4419801C0419AFA01E03011F45A
:10030A00429801C0429AEE85FF85E03011F4439885
:10031A0001C0439A0E941404EA17FB072CF40E94B6
:10032A001904EA17FB070CF001C001C0BDCF0E94F7
:10033A000204E6E63E2EA889A23781F400E010E026
:10034A0020E030E041E050E0E0E0EE87EF870E94F5
:10035A002204EE83FF83E09195000FC000E010E0D5
:10036A0021E030E040E050E0E0E0EE87EF870E94D5
:10037A001E04EE83FF83E0918500F0E0E887F987A9
:10038A000E9407040E940D040E941404AE17BF07BE
:10039A002CF00E941904AE17BF07CCF5A889AC3619
:1003AA0039F40E941E04EC87FD87E091850006C09F
:1003BA000E942204EC87FD87E0919500F0E0EA872D
:1003CA00FB87F801E03011F4409801C0409AF90126
:1003DA00E03011F4419801C0419AFA01E03011F479
:1003EA00429801C0429AEE85FF85E03011F44398A5
:1003FA0001C0439A0E941404EA17FB072CF40E94D6
:10040A001904EA17FB070CF001C001C0BDCF0E9416
:10041A000204E6E63E2E0E94770461960895E0E81B
:10042A00E0936100E0E0E0936100E2B9E1B9E5B987
:10043A00E0E9E4B9E0E0E8B9EFE0E7B9E0E0EBB918
:10044A00E0E2EAB9E0E0EEB9E2E0EDB9E0E0E1BB12
:10045A00E0BBE4BBE3BBE3E8E4BDE3E0E5BDE0E029
:10046A00E6BDEFE4E7BDE0E0E8BDE093B600E3E80F
:10047A00E093B000E3E0E093B100E0E0E093B20083
:10048A00EFE4E093B300E0E0E093B400E09380008F
:10049A00E6E0E0938100E0E0E0938500E0938400E9
:1004AA00E0938700E0938600E0938900E093880058
:1004BA00E0938B00E0938A00E0938D00E0938C0038
:1004CA00E0939000E6E0E0939100E0E0E09395008D
:1004DA00E0939400E0939700E0939600E0939900EC
:1004EA00E0939800E0939B00E0939A00E0939D00CC
:1004FA00E0939C00E0932001EDE0E0932101E0E02D
:10050A00E0932501E0932401E0932701E09326017B
:10051A000E942604E0E0E0932B01E0932A01E09395
:10052A002D01E0932C01E093A000E093A100E09359
:10053A00A500E093A400E093A700E093A600E0934F
:10054A00A900E093A800E093AB00E093AA00E0932F
:10055A00AD00E093AC00E0936900E0936A00EDBB64
:10056A00E0936B00E0936C00E0936D00E093680009
:10057A00E0936E00E0936F00E0937000E0937100E7
:10058A00E0937200E2E0E0937300E0E0E093C800D9
:10059A00E8E1E093C900E6E0E093CA00E0E0E09316
:1005AA00CD00EFE5E093CC00E0E8E0BFE0E0E093C7
:1005BA007B0078945524662477248824B7B4CC2405
:1005CA00D090B300EE240E942D042F9A2C9A0E94F8
:1005DA00B7004E2EE42DE73779F4EDE0E0932101E0
:1005EA000E942604E2E0E09373000E9438040E940D
:1005FA002D04E7E73E2EB4C0E33779F4EDE0E0934B
:10060A0021010E942604E2E0E09373000E943D0467
:10061A000E942D04E7E73E2EA3C0E43659F40E9457
:10062A004204409A4198429A43980E942D04E4E673
:10063A003E2E96C0E13659F40E9442044098419AEF
:10064A004298439A0E942D04E1E63E2E89C0E6367E
:10065A0049F40E9442040E9402040E942D04E6E624
:10066A003E2E7EC0EA3739F4E1E0F0E0BE0ECF1E3E
:10067A00DE0EEF1E75C0E83759F4EB2DFC2D3197CD
:10068A00BE2ECF2EED2DFE2D3197DE2EEF2E68C019
:10069A00E53749F40E9442040E944C040E9438043F
:1006AA00E6E63E2E5DC0E93649F40E9442040E9405
:1006BA005A040E943804E6E63E2E52C0EF3649F448
:1006CA000E9442040E944C040E943D04E6E63E2E2B
:1006DA0047C0E03749F40E9442040E945A040E942B
:1006EA003D04E6E63E2E3CC0E13709F5ECE6EA9326
:1006FA000E94C9000E941E040E946804E0918500BD
:10070A00F0E00E9468040E946C04E2E7EA930E9407
:10071A00C9000E9422040E946804E0919500F0E05A
:10072A000E9468040E946C040E946C0419C0EC3692
:10073A0059F40E944204ECE6EA930E9429010E94BD
:10074A002D04E6E63E2E0CC0E23751F40E94420424
:10075A00E2E7EA930E9429010E942D04E6E63E2E72
:10076A00E091000AF091010AEB0DFC1DE7BDE09152
:10077A00020AF091030AED0DFE1DE093B30025CFA6
:10078A00FFCFA991B991E991F99130962AF4E095B0
:10079A00F09531966DE26D93E89480E197E20DD081
:1007AA0088EE93E00AD084E6992707D08AE005D03C
:1007BA006E2F10D066276C9308956627E817F907FD
:1007CA0020F06395E81BF90BC9F7662311F416F0BC
:1007DA0008956894605D6D930895A991B991EE2783
:1007EA00FF276D91662311F03196FBCF0895E0E063
:1007FA00E0939400E09384000895409841984298C9
:10080A0043980895E0E0E0939500E0938500EFCFE8
:10081A00E0E0EA87EB87E0E0EC87ED870895E8857A
:10082A00F985AA85BB850895EE81FF81AC85BD85D2
:10083A000895E0918400F0E00895E0919400F0E0DA
:10084A000895E5E0E0932901EFE9E093280108958E
:10085A00E0E0E093000AE093010AE0E0E093020A94
:10086A00E093030A0895409A41984298439A08955A
:10087A004098419A429A43980895E0E0E093210112
:10088A00E0932901E0932801E09373000895E0E0E2
:10089A00E093000AE093010AE091040AF091050A44
:1008AA00E093020AF093030A0895E091040AF09192
:1008BA00050AE093000AF093010AE0E0E093020AD5
:1008CA00E093030A0895FA93EA930C940301EFE57F
:1008DA00EA930C94C9005A934A933A932A931A9327
:1008EA000A9308955D814C813B812A81198108818F
:1008FA000895AC0FBD1F05900D928A95E1F70895F2
:00000001FF
